{
  "transactions": [
    {
      "hash": null,
      "transactionType": "CALL",
      "contractName": null,
      "contractAddress": "0x8498fa4591201def1380328103c7d7050d1f5dd7",
      "function": "setAuthorizedRouter(address,bool)",
      "arguments": [
        "0x3dd63AdB03d46fEA41c14D6a557bd3E329DFecC1",
        "true"
      ],
      "transaction": {
        "from": "0x0b340c5cbfb62b36dcb793e542d86dfc20d9b1ba",
        "to": "0x8498fa4591201def1380328103c7d7050d1f5dd7",
        "gas": "0xfb4d",
        "value": "0x0",
        "input": "0xb387cb650000000000000000000000003dd63adb03d46fea41c14d6a557bd3e329dfecc10000000000000000000000000000000000000000000000000000000000000001",
        "nonce": "0x1b",
        "chainId": "0x4268"
      },
      "additionalContracts": [],
      "isFixedGasLimit": false
    },
    {
      "hash": null,
      "transactionType": "CALL",
      "contractName": null,
      "contractAddress": "0x8498fa4591201def1380328103c7d7050d1f5dd7",
      "function": "setGlobalBorrowCap(address,uint256)",
      "arguments": [
        "0x1111111111111111111111111111111111111111",
        "10000000000000000000000000"
      ],
      "transaction": {
        "from": "0x0b340c5cbfb62b36dcb793e542d86dfc20d9b1ba",
        "to": "0x8498fa4591201def1380328103c7d7050d1f5dd7",
        "gas": "0x10969",
        "value": "0x0",
        "input": "0x7f17a8170000000000000000000000001111111111111111111111111111111111111111000000000000000000000000000000000000000000084595161401484a000000",
        "nonce": "0x1c",
        "chainId": "0x4268"
      },
      "additionalContracts": [],
      "isFixedGasLimit": false
    },
    {
      "hash": null,
      "transactionType": "CALL",
      "contractName": null,
      "contractAddress": "0x8498fa4591201def1380328103c7d7050d1f5dd7",
      "function": "setGlobalBorrowCap(address,uint256)",
      "arguments": [
        "0x2222222222222222222222222222222222222222",
        "10000000000000000000000000"
      ],
      "transaction": {
        "from": "0x0b340c5cbfb62b36dcb793e542d86dfc20d9b1ba",
        "to": "0x8498fa4591201def1380328103c7d7050d1f5dd7",
        "gas": "0x10969",
        "value": "0x0",
        "input": "0x7f17a8170000000000000000000000002222222222222222222222222222222222222222000000000000000000000000000000000000000000084595161401484a000000",
        "nonce": "0x1d",
        "chainId": "0x4268"
      },
      "additionalContracts": [],
      "isFixedGasLimit": false
    },
    {
      "hash": null,
      "transactionType": "CALL",
      "contractName": null,
      "contractAddress": "0x8498fa4591201def1380328103c7d7050d1f5dd7",
      "function": "setGlobalBorrowCap(address,uint256)",
      "arguments": [
        "0x3333333333333333333333333333333333333333",
        "10000000000000000000000000"
      ],
      "transaction": {
        "from": "0x0b340c5cbfb62b36dcb793e542d86dfc20d9b1ba",
        "to": "0x8498fa4591201def1380328103c7d7050d1f5dd7",
        "gas": "0x10969",
        "value": "0x0",
        "input": "0x7f17a8170000000000000000000000003333333333333333333333333333333333333333000000000000000000000000000000000000000000084595161401484a000000",
        "nonce": "0x1e",
        "chainId": "0x4268"
      },
      "additionalContracts": [],
      "isFixedGasLimit": false
    },
    {
      "hash": null,
      "transactionType": "CALL",
      "contractName": null,
      "contractAddress": "0x3dd63adb03d46fea41c14d6a557bd3e329dfecc1",
      "function": "setMaxGlobalLeverage(uint256)",
      "arguments": [
        "1000"
      ],
      "transaction": {
        "from": "0x0b340c5cbfb62b36dcb793e542d86dfc20d9b1ba",
        "to": "0x3dd63adb03d46fea41c14d6a557bd3e329dfecc1",
        "gas": "0x9394",
        "value": "0x0",
        "input": "0x4f091e9500000000000000000000000000000000000000000000000000000000000003e8",
        "nonce": "0x1f",
        "chainId": "0x4268"
      },
      "additionalContracts": [],
      "isFixedGasLimit": false
    },
    {
      "hash": null,
      "transactionType": "CALL",
      "contractName": null,
      "contractAddress": "0x3dd63adb03d46fea41c14d6a557bd3e329dfecc1",
      "function": "authorizePool((address,address,uint24,int24,address),uint256)",
      "arguments": [
        "(0x1111111111111111111111111111111111111111, 0x2222222222222222222222222222222222222222, 3000, 60, 0xedd7a4642F404a06b3051Eb794e5d001c6aD83c0)",
        "1000"
      ],
      "transaction": {
        "from": "0x0b340c5cbfb62b36dcb793e542d86dfc20d9b1ba",
        "to": "0x3dd63adb03d46fea41c14d6a557bd3e329dfecc1",
        "gas": "0x1977f",
        "value": "0x0",
        "input": "0x7f06ff49000000000000000000000000111111111111111111111111111111111111111100000000000000000000000022222222222222222222222222222222222222220000000000000000000000000000000000000000000000000000000000000bb8000000000000000000000000000000000000000000000000000000000000003c000000000000000000000000edd7a4642f404a06b3051eb794e5d001c6ad83c000000000000000000000000000000000000000000000000000000000000003e8",
        "nonce": "0x20",
        "chainId": "0x4268"
      },
      "additionalContracts": [],
      "isFixedGasLimit": false
    },
    {
      "hash": null,
      "transactionType": "CALL",
      "contractName": null,
      "contractAddress": "0x8498fa4591201def1380328103c7d7050d1f5dd7",
      "function": "setPoolBorrowCap(bytes32,address,uint256)",
      "arguments": [
        "0x59588e46e33d0305afa812f4c32d438ebbd453c741ac99a8fdb1977d75857098",
        "0x1111111111111111111111111111111111111111",
        "1000000000000000000000000"
      ],
      "transaction": {
        "from": "0x0b340c5cbfb62b36dcb793e542d86dfc20d9b1ba",
        "to": "0x8498fa4591201def1380328103c7d7050d1f5dd7",
        "gas": "0x1099f",
        "value": "0x0",
        "input": "0x7c742b7a59588e46e33d0305afa812f4c32d438ebbd453c741ac99a8fdb1977d75857098000000000000000000000000111111111111111111111111111111111111111100000000000000000000000000000000000000000000d3c21bcecceda1000000",
        "nonce": "0x21",
        "chainId": "0x4268"
      },
      "additionalContracts": [],
      "isFixedGasLimit": false
    },
    {
      "hash": null,
      "transactionType": "CALL",
      "contractName": null,
      "contractAddress": "0x8498fa4591201def1380328103c7d7050d1f5dd7",
      "function": "setPoolBorrowCap(bytes32,address,uint256)",
      "arguments": [
        "0x59588e46e33d0305afa812f4c32d438ebbd453c741ac99a8fdb1977d75857098",
        "0x2222222222222222222222222222222222222222",
        "1000000000000000000000000"
      ],
      "transaction": {
        "from": "0x0b340c5cbfb62b36dcb793e542d86dfc20d9b1ba",
        "to": "0x8498fa4591201def1380328103c7d7050d1f5dd7",
        "gas": "0x1099f",
        "value": "0x0",
        "input": "0x7c742b7a59588e46e33d0305afa812f4c32d438ebbd453c741ac99a8fdb1977d75857098000000000000000000000000222222222222222222222222222222222222222200000000000000000000000000000000000000000000d3c21bcecceda1000000",
        "nonce": "0x22",
        "chainId": "0x4268"
      },
      "additionalContracts": [],
      "isFixedGasLimit": false
    },
    {
      "hash": null,
      "transactionType": "CALL",
      "contractName": null,
      "contractAddress": "0x3dd63adb03d46fea41c14d6a557bd3e329dfecc1",
      "function": "authorizePool((address,address,uint24,int24,address),uint256)",
      "arguments": [
        "(0x3333333333333333333333333333333333333333, 0x1111111111111111111111111111111111111111, 3000, 60, 0xedd7a4642F404a06b3051Eb794e5d001c6aD83c0)",
        "1000"
      ],
      "transaction": {
        "from": "0x0b340c5cbfb62b36dcb793e542d86dfc20d9b1ba",
        "to": "0x3dd63adb03d46fea41c14d6a557bd3e329dfecc1",
        "gas": "0x1977f",
        "value": "0x0",
        "input": "0x7f06ff49000000000000000000000000333333333333333333333333333333333333333300000000000000000000000011111111111111111111111111111111111111110000000000000000000000000000000000000000000000000000000000000bb8000000000000000000000000000000000000000000000000000000000000003c000000000000000000000000edd7a4642f404a06b3051eb794e5d001c6ad83c000000000000000000000000000000000000000000000000000000000000003e8",
        "nonce": "0x23",
        "chainId": "0x4268"
      },
      "additionalContracts": [],
      "isFixedGasLimit": false
    },
    {
      "hash": null,
      "transactionType": "CALL",
      "contractName": null,
      "contractAddress": "0x8498fa4591201def1380328103c7d7050d1f5dd7",
      "function": "setPoolBorrowCap(bytes32,address,uint256)",
      "arguments": [
        "0x806bcb4ddc40dd73e22d7b65e0a1e2e5e6cfd746f485f7ebea7304c8f95089b2",
        "0x3333333333333333333333333333333333333333",
        "1000000000000000000000000"
      ],
      "transaction": {
        "from": "0x0b340c5cbfb62b36dcb793e542d86dfc20d9b1ba",
        "to": "0x8498fa4591201def1380328103c7d7050d1f5dd7",
        "gas": "0x1099f",
        "value": "0x0",
        "input": "0x7c742b7a806bcb4ddc40dd73e22d7b65e0a1e2e5e6cfd746f485f7ebea7304c8f95089b2000000000000000000000000333333333333333333333333333333333333333300000000000000000000000000000000000000000000d3c21bcecceda1000000",
        "nonce": "0x24",
        "chainId": "0x4268"
      },
      "additionalContracts": [],
      "isFixedGasLimit": false
    },
    {
      "hash": null,
      "transactionType": "CALL",
      "contractName": null,
      "contractAddress": "0x8498fa4591201def1380328103c7d7050d1f5dd7",
      "function": "setPoolBorrowCap(bytes32,address,uint256)",
      "arguments": [
        "0x806bcb4ddc40dd73e22d7b65e0a1e2e5e6cfd746f485f7ebea7304c8f95089b2",
        "0x1111111111111111111111111111111111111111",
        "1000000000000000000000000"
      ],
      "transaction": {
        "from": "0x0b340c5cbfb62b36dcb793e542d86dfc20d9b1ba",
        "to": "0x8498fa4591201def1380328103c7d7050d1f5dd7",
        "gas": "0x1099f",
        "value": "0x0",
        "input": "0x7c742b7a806bcb4ddc40dd73e22d7b65e0a1e2e5e6cfd746f485f7ebea7304c8f95089b2000000000000000000000000111111111111111111111111111111111111111100000000000000000000000000000000000000000000d3c21bcecceda1000000",
        "nonce": "0x25",
        "chainId": "0x4268"
      },
      "additionalContracts": [],
      "isFixedGasLimit": false
    },
    {
      "hash": null,
      "transactionType": "CALL",
      "contractName": null,
      "contractAddress": "0x3dd63adb03d46fea41c14d6a557bd3e329dfecc1",
      "function": "authorizePool((address,address,uint24,int24,address),uint256)",
      "arguments": [
        "(0x3333333333333333333333333333333333333333, 0x2222222222222222222222222222222222222222, 3000, 60, 0xedd7a4642F404a06b3051Eb794e5d001c6aD83c0)",
        "1000"
      ],
      "transaction": {
        "from": "0x0b340c5cbfb62b36dcb793e542d86dfc20d9b1ba",
        "to": "0x3dd63adb03d46fea41c14d6a557bd3e329dfecc1",
        "gas": "0x1977f",
        "value": "0x0",
        "input": "0x7f06ff49000000000000000000000000333333333333333333333333333333333333333300000000000000000000000022222222222222222222222222222222222222220000000000000000000000000000000000000000000000000000000000000bb8000000000000000000000000000000000000000000000000000000000000003c000000000000000000000000edd7a4642f404a06b3051eb794e5d001c6ad83c000000000000000000000000000000000000000000000000000000000000003e8",
        "nonce": "0x26",
        "chainId": "0x4268"
      },
      "additionalContracts": [],
      "isFixedGasLimit": false
    },
    {
      "hash": null,
      "transactionType": "CALL",
      "contractName": null,
      "contractAddress": "0x8498fa4591201def1380328103c7d7050d1f5dd7",
      "function": "setPoolBorrowCap(bytes32,address,uint256)",
      "arguments": [
        "0xb17f8925848556bb1be10079ce8751ab34c0be1907e6907e4f9f2475970543de",
        "0x3333333333333333333333333333333333333333",
        "1000000000000000000000000"
      ],
      "transaction": {
        "from": "0x0b340c5cbfb62b36dcb793e542d86dfc20d9b1ba",
        "to": "0x8498fa4591201def1380328103c7d7050d1f5dd7",
        "gas": "0x1192e",
        "value": "0x0",
        "input": "0x7c742b7ab17f8925848556bb1be10079ce8751ab34c0be1907e6907e4f9f2475970543de000000000000000000000000333333333333333333333333333333333333333300000000000000000000000000000000000000000000d3c21bcecceda1000000",
        "nonce": "0x27",
        "chainId": "0x4268"
      },
      "additionalContracts": [],
      "isFixedGasLimit": false
    },
    {
      "hash": null,
      "transactionType": "CALL",
      "contractName": null,
      "contractAddress": "0x8498fa4591201def1380328103c7d7050d1f5dd7",
      "function": "setPoolBorrowCap(bytes32,address,uint256)",
      "arguments": [
        "0xb17f8925848556bb1be10079ce8751ab34c0be1907e6907e4f9f2475970543de",
        "0x2222222222222222222222222222222222222222",
        "1000000000000000000000000"
      ],
      "transaction": {
        "from": "0x0b340c5cbfb62b36dcb793e542d86dfc20d9b1ba",
        "to": "0x8498fa4591201def1380328103c7d7050d1f5dd7",
        "gas": "0x1192e",
        "value": "0x0",
        "input": "0x7c742b7ab17f8925848556bb1be10079ce8751ab34c0be1907e6907e4f9f2475970543de000000000000000000000000222222222222222222222222222222222222222200000000000000000000000000000000000000000000d3c21bcecceda1000000",
        "nonce": "0x28",
        "chainId": "0x4268"
      },
      "additionalContracts": [],
      "isFixedGasLimit": false
    }
  ],
  "receipts": [],
  "libraries": [],
  "pending": [],
  "returns": {},
  "timestamp": 1758216728,
  "chain": 17000,
  "commit": "6268435"
}