{
  "transactions": [
    {
      "hash": "0x388cef1bc99032134b380c0eedc6be3c4de86c0badc270d870d61408da441fd7",
      "transactionType": "CALL",
      "contractName": null,
      "contractAddress": "0xa44151489861fe9e3055d95adc98fbd462b948e7",
      "function": "registerAsOperator(address,uint32,string)",
      "arguments": [
        "0x0000000000000000000000000000000000000000",
        "0",
        ""
      ],
      "transaction": {
        "from": "0xfe8f62e7acce644e9861b3f03b1c25e3cbe665b6",
        "to": "0xa44151489861fe9e3055d95adc98fbd462b948e7",
        "gas": "0x2f10e",
        "value": "0x0",
        "input": "0x2aa6d8880000000000000000000000000000000000000000000000000000000000000000000000000000000000000000000000000000000000000000000000000000000000000000000000000000000000000000000000000000000000000000000000600000000000000000000000000000000000000000000000000000000000000000",
        "nonce": "0x0",
        "chainId": "0x4268"
      },
      "additionalContracts": [],
      "isFixedGasLimit": false
    },
    {
      "hash": null,
      "transactionType": "CALL",
      "contractName": null,
      "contractAddress": "0xa44151489861fe9e3055d95adc98fbd462b948e7",
      "function": "registerAsOperator(address,uint32,string)",
      "arguments": [
        "0x0000000000000000000000000000000000000000",
        "0",
        ""
      ],
      "transaction": {
        "from": "0xe51a8b9a1cc38bf862b4f792efc7ef073cefa276",
        "to": "0xa44151489861fe9e3055d95adc98fbd462b948e7",
        "gas": "0x2f10e",
        "value": "0x0",
        "input": "0x2aa6d8880000000000000000000000000000000000000000000000000000000000000000000000000000000000000000000000000000000000000000000000000000000000000000000000000000000000000000000000000000000000000000000000600000000000000000000000000000000000000000000000000000000000000000",
        "nonce": "0x0",
        "chainId": "0x4268"
      },
      "additionalContracts": [],
      "isFixedGasLimit": false
    }
  ],
  "receipts": [],
  "libraries": [],
  "pending": [],
  "returns": {},
  "timestamp": 1758216524,
  "chain": 17000,
  "commit": "6268435"
}