{
  "transactions": [
    {
      "hash": "0xaa9073def7d6d3a3418adc129618647605212c8a5ba1dc0f377c0c184dff53ec",
      "transactionType": "CALL",
      "contractName": null,
      "contractAddress": "0xa44151489861fe9e3055d95adc98fbd462b948e7",
      "function": "registerAsOperator(address,uint32,string)",
      "arguments": [
        "0x0000000000000000000000000000000000000000",
        "0",
        ""
      ],
      "transaction": {
        "from": "0x7abf93861bf6bf5fff7630e4e7e39d95d4badb56",
        "to": "0xa44151489861fe9e3055d95adc98fbd462b948e7",
        "gas": "0x2f10e",
        "value": "0x0",
        "input": "0x2aa6d8880000000000000000000000000000000000000000000000000000000000000000000000000000000000000000000000000000000000000000000000000000000000000000000000000000000000000000000000000000000000000000000000600000000000000000000000000000000000000000000000000000000000000000",
        "nonce": "0x0",
        "chainId": "0x4268"
      },
      "additionalContracts": [],
      "isFixedGasLimit": false
    },
    {
      "hash": null,
      "transactionType": "CALL",
      "contractName": null,
      "contractAddress": "0xa8f31f230bfe82f52f41940cf7dd53b3a7daed62",
      "function": "registerOperator(address,uint8[],string)",
      "arguments": [
        "0x7abf93861bF6Bf5FfF7630E4E7e39d95d4BADb56",
        "[]",
        "socket_Operator1"
      ],
      "transaction": {
        "from": "0xde8792e863d73c751e07c4a88a600d2c5ab0ff74",
        "to": "0xa8f31f230bfe82f52f41940cf7dd53b3a7daed62",
        "gas": "0x106bc",
        "value": "0x0",
        "input": "0xe5db3d290000000000000000000000007abf93861bf6bf5fff7630e4e7e39d95d4badb560000000000000000000000000000000000000000000000000000000000000060000000000000000000000000000000000000000000000000000000000000008000000000000000000000000000000000000000000000000000000000000000000000000000000000000000000000000000000000000000000000000000000010736f636b65745f4f70657261746f723100000000000000000000000000000000",
        "nonce": "0x1",
        "chainId": "0x4268"
      },
      "additionalContracts": [],
      "isFixedGasLimit": false
    },
    {
      "hash": null,
      "transactionType": "CALL",
      "contractName": null,
      "contractAddress": "0xa44151489861fe9e3055d95adc98fbd462b948e7",
      "function": "registerAsOperator(address,uint32,string)",
      "arguments": [
        "0x0000000000000000000000000000000000000000",
        "0",
        ""
      ],
      "transaction": {
        "from": "0x1d32296b18db5da7ee821a11e07f15aa050de94f",
        "to": "0xa44151489861fe9e3055d95adc98fbd462b948e7",
        "gas": "0x2f10e",
        "value": "0x0",
        "input": "0x2aa6d8880000000000000000000000000000000000000000000000000000000000000000000000000000000000000000000000000000000000000000000000000000000000000000000000000000000000000000000000000000000000000000000000600000000000000000000000000000000000000000000000000000000000000000",
        "nonce": "0x0",
        "chainId": "0x4268"
      },
      "additionalContracts": [],
      "isFixedGasLimit": false
    },
    {
      "hash": null,
      "transactionType": "CALL",
      "contractName": null,
      "contractAddress": "0xa8f31f230bfe82f52f41940cf7dd53b3a7daed62",
      "function": "registerOperator(address,uint8[],string)",
      "arguments": [
        "0x1d32296B18DB5Da7EE821A11E07f15aa050DE94F",
        "[]",
        "socket_Operator2"
      ],
      "transaction": {
        "from": "0xde8792e863d73c751e07c4a88a600d2c5ab0ff74",
        "to": "0xa8f31f230bfe82f52f41940cf7dd53b3a7daed62",
        "gas": "0x106bc",
        "value": "0x0",
        "input": "0xe5db3d290000000000000000000000001d32296b18db5da7ee821a11e07f15aa050de94f0000000000000000000000000000000000000000000000000000000000000060000000000000000000000000000000000000000000000000000000000000008000000000000000000000000000000000000000000000000000000000000000000000000000000000000000000000000000000000000000000000000000000010736f636b65745f4f70657261746f723200000000000000000000000000000000",
        "nonce": "0x2",
        "chainId": "0x4268"
      },
      "additionalContracts": [],
      "isFixedGasLimit": false
    }
  ],
  "receipts": [],
  "libraries": [],
  "pending": [],
  "returns": {},
  "timestamp": 1758207358,
  "chain": 17000,
  "commit": "301370c"
}